{
  "contractName": "ProductCatalog",
  "abi": [
    {
      "constant": true,
      "inputs": [
        {
          "name": "",
          "type": "uint256"
        }
      ],
      "name": "products",
      "outputs": [
        {
          "name": "",
          "type": "address"
        }
      ],
      "payable": false,
      "stateMutability": "view",
      "type": "function"
    },
    {
      "constant": true,
      "inputs": [
        {
          "name": "",
          "type": "bytes12"
        }
      ],
      "name": "productIdToProduct",
      "outputs": [
        {
          "name": "",
          "type": "address"
        }
      ],
      "payable": false,
      "stateMutability": "view",
      "type": "function"
    },
    {
      "anonymous": false,
      "inputs": [
        {
          "indexed": false,
          "name": "productAddress",
          "type": "address"
        },
        {
          "indexed": false,
          "name": "name",
          "type": "bytes32"
        },
        {
          "indexed": false,
          "name": "productId",
          "type": "bytes32"
        }
      ],
      "name": "ProductCreated",
      "type": "event"
    },
    {
      "constant": false,
      "inputs": [
        {
          "name": "name",
          "type": "bytes32"
        },
        {
          "name": "productId",
          "type": "bytes12"
        }
      ],
      "name": "createProduct",
      "outputs": [
        {
          "name": "",
          "type": "address"
        }
      ],
      "payable": false,
      "stateMutability": "nonpayable",
      "type": "function"
    },
    {
      "constant": true,
      "inputs": [],
      "name": "getProductCount",
      "outputs": [
        {
          "name": "",
          "type": "uint256"
        }
      ],
      "payable": false,
      "stateMutability": "view",
      "type": "function"
    }
  ],
  "bytecode": "0x608060405234801561001057600080fd5b50610733806100206000396000f300608060405260043610610062576000357c0100000000000000000000000000000000000000000000000000000000900463ffffffff1680634a348da9146100675780637acc0b20146100925780638008ed2d146100ff578063f03ec76014610183575b600080fd5b34801561007357600080fd5b5061007c610215565b6040518082815260200191505060405180910390f35b34801561009e57600080fd5b506100bd60048036038101908080359060200190929190505050610221565b604051808273ffffffffffffffffffffffffffffffffffffffff1673ffffffffffffffffffffffffffffffffffffffff16815260200191505060405180910390f35b34801561010b57600080fd5b50610141600480360381019080803573ffffffffffffffffffffffffffffffffffffffff1916906020019092919050505061025f565b604051808273ffffffffffffffffffffffffffffffffffffffff1673ffffffffffffffffffffffffffffffffffffffff16815260200191505060405180910390f35b34801561018f57600080fd5b506101d36004803603810190808035600019169060200190929190803573ffffffffffffffffffffffffffffffffffffffff19169060200190929190505050610292565b604051808273ffffffffffffffffffffffffffffffffffffffff1673ffffffffffffffffffffffffffffffffffffffff16815260200191505060405180910390f35b60008080549050905090565b60008181548110151561023057fe5b906000526020600020016000915054906101000a900473ffffffffffffffffffffffffffffffffffffffff1681565b60016020528060005260406000206000915054906101000a900473ffffffffffffffffffffffffffffffffffffffff1681565b600080838361029f610488565b8083600019166000191681526020018273ffffffffffffffffffffffffffffffffffffffff191673ffffffffffffffffffffffffffffffffffffffff1916815260200192505050604051809103906000f080158015610302573d6000803e3d6000fd5b50905060008190806001815401808255809150509060018203906000526020600020016000909192909190916101000a81548173ffffffffffffffffffffffffffffffffffffffff021916908373ffffffffffffffffffffffffffffffffffffffff1602179055505080600160008573ffffffffffffffffffffffffffffffffffffffff191673ffffffffffffffffffffffffffffffffffffffff1916815260200190815260200160002060006101000a81548173ffffffffffffffffffffffffffffffffffffffff021916908373ffffffffffffffffffffffffffffffffffffffff1602179055507f9b05210c7f3d61513552dcd3d02b413dbdccff36448fa0e066ca9465e6a925f4818585604051808473ffffffffffffffffffffffffffffffffffffffff1673ffffffffffffffffffffffffffffffffffffffff16815260200183600019166000191681526020018273ffffffffffffffffffffffffffffffffffffffff1916600019168152602001935050505060405180910390a15092915050565b60405161026f80610499833901905600608060405234801561001057600080fd5b5060405160408061026f8339810180604052810190808051906020019092919080519060200190929190505050816000816000191690555080600160006101000a8154816bffffffffffffffffffffffff0219169083740100000000000000000000000000000000000000009004021790555050506101db806100946000396000f300608060405260043610610057576000357c0100000000000000000000000000000000000000000000000000000000900463ffffffff16806306fdde031461005c5780635a9b0b891461008f578063c5ce3911146100f7575b600080fd5b34801561006857600080fd5b50610071610150565b60405180826000191660001916815260200191505060405180910390f35b34801561009b57600080fd5b506100a4610156565b6040518083600019166000191681526020018273ffffffffffffffffffffffffffffffffffffffff191673ffffffffffffffffffffffffffffffffffffffff191681526020019250505060405180910390f35b34801561010357600080fd5b5061010c610188565b604051808273ffffffffffffffffffffffffffffffffffffffff191673ffffffffffffffffffffffffffffffffffffffff1916815260200191505060405180910390f35b60005481565b600080600054600160009054906101000a90047401000000000000000000000000000000000000000002915091509091565b600160009054906101000a90047401000000000000000000000000000000000000000002815600a165627a7a72305820a87d21c1e561201d7d4e311dc163f8c778e3bd653249a4a7add007143d16799a0029a165627a7a72305820e0412f8c3d98184db5667b8d8dbb58c09c92f0009b96d17c2aec9b94ec4896590029",
  "source": "pragma solidity ^0.4.18;\n\nimport './Product.sol';\n\ncontract ProductCatalog {\n  Product[] public products;\n  mapping(bytes12 => Product) public productIdToProduct;\n\n  event ProductCreated(address productAddress, bytes32 name, bytes32 productId);\n\n  function createProduct(bytes32 name, bytes12 productId) external returns (address) {\n    Product product = new Product(name, productId);\n    products.push(product);\n    productIdToProduct[productId] = product;\n\n    ProductCreated(product, name, productId);\n  }\n\n  function getProductCount () external view returns (uint) {\n    return products.length;\n  }\n}\n",
  "sourcePath": "/home/vagrant/work/trufflescripts/ibftt/contracts/ProductCatalog.sol",
  "compiler": {
    "name": "solc",
    "version": "0.4.24+commit.e67f0147.Emscripten.clang"
  },
  "schemaVersion": "2.0.1",
  "updatedAt": "2018-07-23T06:22:50.428Z"
}