{
  "contractName": "Product",
  "abi": [
    {
      "constant": true,
      "inputs": [],
      "name": "name",
      "outputs": [
        {
          "name": "",
          "type": "bytes32"
        }
      ],
      "payable": false,
      "stateMutability": "view",
      "type": "function"
    },
    {
      "constant": true,
      "inputs": [],
      "name": "productId",
      "outputs": [
        {
          "name": "",
          "type": "bytes12"
        }
      ],
      "payable": false,
      "stateMutability": "view",
      "type": "function"
    },
    {
      "inputs": [
        {
          "name": "_name",
          "type": "bytes32"
        },
        {
          "name": "_productId",
          "type": "bytes12"
        }
      ],
      "payable": false,
      "stateMutability": "nonpayable",
      "type": "constructor"
    },
    {
      "constant": true,
      "inputs": [],
      "name": "getInfo",
      "outputs": [
        {
          "name": "",
          "type": "bytes32"
        },
        {
          "name": "",
          "type": "bytes12"
        }
      ],
      "payable": false,
      "stateMutability": "view",
      "type": "function"
    }
  ],
  "bytecode": "0x608060405234801561001057600080fd5b5060405160408061026f8339810180604052810190808051906020019092919080519060200190929190505050816000816000191690555080600160006101000a8154816bffffffffffffffffffffffff0219169083740100000000000000000000000000000000000000009004021790555050506101db806100946000396000f300608060405260043610610057576000357c0100000000000000000000000000000000000000000000000000000000900463ffffffff16806306fdde031461005c5780635a9b0b891461008f578063c5ce3911146100f7575b600080fd5b34801561006857600080fd5b50610071610150565b60405180826000191660001916815260200191505060405180910390f35b34801561009b57600080fd5b506100a4610156565b6040518083600019166000191681526020018273ffffffffffffffffffffffffffffffffffffffff191673ffffffffffffffffffffffffffffffffffffffff191681526020019250505060405180910390f35b34801561010357600080fd5b5061010c610188565b604051808273ffffffffffffffffffffffffffffffffffffffff191673ffffffffffffffffffffffffffffffffffffffff1916815260200191505060405180910390f35b60005481565b600080600054600160009054906101000a90047401000000000000000000000000000000000000000002915091509091565b600160009054906101000a90047401000000000000000000000000000000000000000002815600a165627a7a72305820a87d21c1e561201d7d4e311dc163f8c778e3bd653249a4a7add007143d16799a0029",
  "source": "pragma solidity ^0.4.18;\n\ncontract Product {\n  bytes32 public name;\n  bytes12 public productId;\n\n  function Product (bytes32 _name, bytes12 _productId) public {\n    name = _name;\n    productId = _productId;\n  }\n\n  function getInfo () external view returns (bytes32, bytes12) {\n    return (name, productId);\n  }\n}\n",
  "sourcePath": "/home/vagrant/work/trufflescripts/ibftt/contracts/Product.sol",
  "compiler": {
    "name": "solc",
    "version": "0.4.24+commit.e67f0147.Emscripten.clang"
  },
  "schemaVersion": "2.0.1",
  "updatedAt": "2018-07-23T06:22:46.388Z"
}