{
  "contractName": "Permissions",
  "abi": [
    {
      "inputs": [],
      "payable": false,
      "stateMutability": "nonpayable",
      "type": "constructor"
    },
    {
      "anonymous": false,
      "inputs": [
        {
          "indexed": false,
          "name": "_nodeIndex",
          "type": "uint256"
        },
        {
          "indexed": false,
          "name": "_enodeId",
          "type": "string"
        },
        {
          "indexed": false,
          "name": "_canWrite",
          "type": "bool"
        },
        {
          "indexed": false,
          "name": "_canLead",
          "type": "bool"
        }
      ],
      "name": "NewNodeProposed",
      "type": "event"
    },
    {
      "anonymous": false,
      "inputs": [
        {
          "indexed": false,
          "name": "_enodeId",
          "type": "string"
        }
      ],
      "name": "NodeExists",
      "type": "event"
    },
    {
      "anonymous": false,
      "inputs": [
        {
          "indexed": false,
          "name": "_enodeId",
          "type": "string"
        }
      ],
      "name": "NodeApproved",
      "type": "event"
    },
    {
      "anonymous": false,
      "inputs": [
        {
          "indexed": false,
          "name": "_enodeId",
          "type": "string"
        }
      ],
      "name": "NothingToApprove",
      "type": "event"
    },
    {
      "anonymous": false,
      "inputs": [
        {
          "indexed": false,
          "name": "_enodeId",
          "type": "string"
        }
      ],
      "name": "NodeDeactivated",
      "type": "event"
    },
    {
      "anonymous": false,
      "inputs": [
        {
          "indexed": false,
          "name": "_enodeId",
          "type": "string"
        }
      ],
      "name": "NodePendingDeactivation",
      "type": "event"
    },
    {
      "anonymous": false,
      "inputs": [
        {
          "indexed": false,
          "name": "_endoeId",
          "type": "string"
        }
      ],
      "name": "InvalidNodeId",
      "type": "event"
    },
    {
      "anonymous": false,
      "inputs": [
        {
          "indexed": false,
          "name": "_enodeId",
          "type": "string"
        }
      ],
      "name": "OperationNotAllowed",
      "type": "event"
    },
    {
      "constant": true,
      "inputs": [
        {
          "name": "_enodeId",
          "type": "string"
        }
      ],
      "name": "getNodeIndexForNode",
      "outputs": [
        {
          "name": "_nodeIndex",
          "type": "uint256"
        }
      ],
      "payable": false,
      "stateMutability": "view",
      "type": "function"
    },
    {
      "constant": true,
      "inputs": [],
      "name": "getNodeIndex",
      "outputs": [
        {
          "name": "_globalNodeIndex",
          "type": "uint256"
        }
      ],
      "payable": false,
      "stateMutability": "view",
      "type": "function"
    },
    {
      "constant": false,
      "inputs": [
        {
          "name": "_enodeId",
          "type": "string"
        }
      ],
      "name": "ApproveNode",
      "outputs": [
        {
          "name": "_nodeIndex",
          "type": "uint256"
        }
      ],
      "payable": false,
      "stateMutability": "nonpayable",
      "type": "function"
    },
    {
      "constant": false,
      "inputs": [
        {
          "name": "_enodeId",
          "type": "string"
        }
      ],
      "name": "DeactivateNode",
      "outputs": [],
      "payable": false,
      "stateMutability": "nonpayable",
      "type": "function"
    },
    {
      "constant": false,
      "inputs": [
        {
          "name": "_enodeId",
          "type": "string"
        },
        {
          "name": "_canWrite",
          "type": "bool"
        },
        {
          "name": "_canLead",
          "type": "bool"
        }
      ],
      "name": "ProposeNode",
      "outputs": [
        {
          "name": "_nodeIndex",
          "type": "uint256"
        }
      ],
      "payable": false,
      "stateMutability": "nonpayable",
      "type": "function"
    },
    {
      "constant": false,
      "inputs": [
        {
          "name": "_enodeId",
          "type": "string"
        }
      ],
      "name": "ProposeDeactivation",
      "outputs": [],
      "payable": false,
      "stateMutability": "nonpayable",
      "type": "function"
    }
  ],
  "bytecode": "0x608060405234801561001057600080fd5b506000600181905550610ee1806100286000396000f300608060405260043610610078576000357c0100000000000000000000000000000000000000000000000000000000900463ffffffff1680633bed02d21461007d5780634cc8814f146100a85780636dcd03e0146101255780639e1ebc141461018e578063bc67f80b14610223578063c1dd1d921461028c575b600080fd5b34801561008957600080fd5b50610092610309565b6040518082815260200191505060405180910390f35b3480156100b457600080fd5b5061010f600480360381019080803590602001908201803590602001908080601f0160208091040260200160405190810160405280939291908181526020018383808284378201915050505050509192919290505050610316565b6040518082815260200191505060405180910390f35b34801561013157600080fd5b5061018c600480360381019080803590602001908201803590602001908080601f0160208091040260200160405190810160405280939291908181526020018383808284378201915050505050509192919290505050610436565b005b34801561019a57600080fd5b5061020d600480360381019080803590602001908201803590602001908080601f01602080910402602001604051908101604052809392919081815260200183838082843782019150505050505091929192908035151590602001909291908035151590602001909291905050506106a8565b6040518082815260200191505060405180910390f35b34801561022f57600080fd5b5061028a600480360381019080803590602001908201803590602001908080601f016020809104026020016040519081016040528093929190818152602001838380828437820191505050505050919291929050505061092f565b005b34801561029857600080fd5b506102f3600480360381019080803590602001908201803590602001908080601f0160208091040260200160405190810160405280939291908181526020018383808284378201915050505050509192919290505050610ae4565b6040518082815260200191505060405180910390f35b6000600154905080905090565b600080600090505b6001548111151561042d57826040518082805190602001908083835b60208310151561035f578051825260208201915060208101905060208303925061033a565b6001836020036101000a0380198251168184511680821785525050505050509050019150506040518091039020600019166003600083815260200190815260200160002060000160405180828054600181600116156101000203166002900480156104015780601f106103df576101008083540402835291820191610401565b820191906000526020600020905b8154815290600101906020018083116103ed575b505091505060405180910390206000191614156104205780915061042d565b808060010191505061031e565b81915050919050565b600080600091506004905061044a83610cbd565b809350819250505060048081111561045e57fe5b81600481111561046a57fe5b14151561050e577fb764cdb6a0230fde10ccb99b051a0f6cdd949612a952b6dd1f1cc19a1112a47a836040518080602001828103825283818151815260200191508051906020019080838360005b838110156104d35780820151818401526020810190506104b8565b50505050905090810190601f1680156105005780820380516001836020036101000a031916815260200191505b509250505060405180910390a15b6001600481111561051b57fe5b81600481111561052757fe5b14156106065760026003600084815260200190815260200160002060010160026101000a81548160ff0219169083600481111561056057fe5b02179055507f2b5689b33f48f1dcbda2084e130a9bee7b3bf14dc767ea74cbdf3e5fffb118e4836040518080602001828103825283818151815260200191508051906020019080838360005b838110156105c75780820151818401526020810190506105ac565b50505050905090810190601f1680156105f45780820380516001836020036101000a031916815260200191505b509250505060405180910390a16106a3565b7f67f2b6d394608ecc5d5d0a62760c0aa6037a4c3b25e892ae70b3db1382f99fbf836040518080602001828103825283818151815260200191508051906020019080838360005b8381101561066857808201518184015260208101905061064d565b50505050905090810190601f1680156106955780820380516001836020036101000a031916815260200191505b509250505060405180910390a15b505050565b600080600490506106b885610cbd565b80935081925050506004808111156106cc57fe5b8160048111156106d857fe5b1415610887576001600081548092919060010191905055506001549150608060405190810160405280868152602001851515815260200184151581526020016000600481111561072457fe5b815250600360008481526020019081526020016000206000820151816000019080519060200190610756929190610e10565b5060208201518160010160006101000a81548160ff02191690831515021790555060408201518160010160016101000a81548160ff02191690831515021790555060608201518160010160026101000a81548160ff021916908360048111156107bb57fe5b02179055509050507f24710d32fe94a8123d02b067220d16cbe971d025360da31379368320f64c8e1b8286868660405180858152602001806020018415151515815260200183151515158152602001828103825285818151815260200191508051906020019080838360005b83811015610842578082015181840152602081019050610827565b50505050905090810190601f16801561086f5780820380516001836020036101000a031916815260200191505b509550505050505060405180910390a1819150610927565b7fefb77b0c75a8de5ab2ca36b22233a2be3554fdc05fd267eb105e6b458186b516856040518080602001828103825283818151815260200191508051906020019080838360005b838110156108e95780820151818401526020810190506108ce565b50505050905090810190601f1680156109165780820380516001836020036101000a031916815260200191505b509250505060405180910390a18191505b509392505050565b600080600091506004905061094383610cbd565b80935081925050506002600481111561095857fe5b81600481111561096457fe5b1415610a4257600380600084815260200190815260200160002060010160026101000a81548160ff0219169083600481111561099c57fe5b02179055507fb4551525dafbacbcbad53f3a1ad477e2de2428dcd5832ae46d8edacf8c2959d5836040518080602001828103825283818151815260200191508051906020019080838360005b83811015610a035780820151818401526020810190506109e8565b50505050905090810190601f168015610a305780820380516001836020036101000a031916815260200191505b509250505060405180910390a1610adf565b7f67f2b6d394608ecc5d5d0a62760c0aa6037a4c3b25e892ae70b3db1382f99fbf836040518080602001828103825283818151815260200191508051906020019080838360005b83811015610aa4578082015181840152602081019050610a89565b50505050905090810190601f168015610ad15780820380516001836020036101000a031916815260200191505b509250505060405180910390a15b505050565b60008060049050610af483610cbd565b809350819250505060016004811115610b0957fe5b6003600084815260200190815260200160002060010160029054906101000a900460ff166004811115610b3857fe5b1415610bdf577fe820171ad1d64f6ca44bb0943acbac4c6085812bf91e8b791646295639806228836040518080602001828103825283818151815260200191508051906020019080838360005b83811015610ba0578082015181840152602081019050610b85565b50505050905090810190601f168015610bcd5780820380516001836020036101000a031916815260200191505b509250505060405180910390a1610cb4565b60016003600084815260200190815260200160002060010160026101000a81548160ff02191690836004811115610c1257fe5b02179055507fc8f0c6e7f31c7ba4e6e29615ae2ab658fdda704c49912bb6118db07a4c36d478836040518080602001828103825283818151815260200191508051906020019080838360005b83811015610c79578082015181840152602081019050610c5e565b50505050905090810190601f168015610ca65780820380516001836020036101000a031916815260200191505b509250505060405180910390a15b81915050919050565b60008060006004925060009150600090505b60015481111515610e0457836040518082805190602001908083835b602083101515610d105780518252602082019150602081019050602083039250610ceb565b6001836020036101000a038019825116818451168082178552505050505050905001915050604051809103902060001916600360008381526020019081526020016000206000016040518082805460018160011615610100020316600290048015610db25780601f10610d90576101008083540402835291820191610db2565b820191906000526020600020905b815481529060010190602001808311610d9e575b50509150506040518091039020600019161415610df7576003600082815260200190815260200160002060010160029054906101000a900460ff169250809150610e04565b8080600101915050610ccf565b82829250925050915091565b828054600181600116156101000203166002900490600052602060002090601f016020900481019282601f10610e5157805160ff1916838001178555610e7f565b82800160010185558215610e7f579182015b82811115610e7e578251825591602001919060010190610e63565b5b509050610e8c9190610e90565b5090565b610eb291905b80821115610eae576000816000905550600101610e96565b5090565b905600a165627a7a7230582073656617b7e9f7be16e64f608a4a2274fc2275a423ddd1135fe911e9259207af0029",
  "source": "pragma solidity ^0.4.0;\n\ncontract Permissions {\n    \n    enum NodeStatus { PendingApproval, Approved, PendingDeactivation, Deactivated, NotInList }\n    struct nodeDetails {\n        string enodeId;\n        bool canWrite;\n        bool canLead;\n        NodeStatus status;\n    }\n    \n    NodeStatus nodeStatus;\n\n\tenum AccessRights { Read, Write, None, Both }\n\tstruct acctRights {\n\t\taddress Account;\n\t\tAccessRights rights;\n\t}\n    \n    uint globalNodeIndex;\n    uint proposedNodeNum;\n    mapping (uint => nodeDetails) nodelist;\n    \n    event NewNodeProposed (uint _nodeIndex, string _enodeId, bool _canWrite, bool _canLead);\n    event NodeExists (string _enodeId);\n\tevent NodeApproved(string _enodeId);\n\tevent NothingToApprove(string _enodeId);\n    event NodeDeactivated (string _enodeId);\n    event NodePendingDeactivation (string _enodeId);\n\tevent InvalidNodeId (string _endoeId);\n\tevent OperationNotAllowed(string _enodeId);\n\n    constructor() public {\n\t    globalNodeIndex = 0;\n    }\n    // Checks if the Node is already added. If yes then returns true\n    function checkIfNodeExists (string _enodeId) internal view  returns (NodeStatus _status, uint _nodeIndex){\n\n        _status = NodeStatus.NotInList;\n\t\t_nodeIndex = 0;\n\n        for (uint i=0; i<= globalNodeIndex; i++){\n            if (keccak256(nodelist[i].enodeId) == keccak256(_enodeId) ){\n                _status =  nodelist[i].status;\n\t\t\t\t_nodeIndex = i;\n                break;\n            }\n        }\n        return (_status, _nodeIndex);\n    }\n\n    function getNodeIndexForNode (string _enodeId) public view returns (uint _nodeIndex){\n        for (uint i=0; i<= globalNodeIndex; i++){\n            if (keccak256(nodelist[i].enodeId) == keccak256(_enodeId) ){\n                _nodeIndex = i;\n                break;\n            }\n        }\n        return _nodeIndex;\n    }\n\n\tfunction getNodeIndex () public view returns (uint _globalNodeIndex){\n\t\t_globalNodeIndex = globalNodeIndex;\n\t\treturn _globalNodeIndex;\n\t}\n\t\n\n    // Adds a node to the nodelist mapping and emits node added event if successfully and node exists event of node is already present\n    function ApproveNode(string _enodeId) public returns (uint _nodeIndex){\n\n        NodeStatus status = NodeStatus.NotInList;\n        (status, _nodeIndex) = checkIfNodeExists(_enodeId);\n\n\t\tif (nodelist[_nodeIndex].status == NodeStatus.Approved){\n\t\t\temit NothingToApprove(_enodeId);\n\t\t}\n\t\telse {\n\t\t\tnodelist[_nodeIndex].status = NodeStatus.Approved;\n\t\t\temit NodeApproved(_enodeId);\n\t\t}\n\t\treturn _nodeIndex;\n    }\n\n    //deactivates a given Enode and emits the decativation event\n    function DeactivateNode (string _enodeId)  public {\n\t\tuint nodeIndex = 0;\n        NodeStatus status = NodeStatus.NotInList;\n        (status, nodeIndex) = checkIfNodeExists(_enodeId);\n\t\n\t\tif (status == NodeStatus.PendingDeactivation) {\n\n        \tnodelist[nodeIndex].status = NodeStatus.Deactivated;\n        \temit NodeDeactivated(_enodeId);\n\t\t}\n\t\telse {\n\t\t\temit OperationNotAllowed(_enodeId);\n\t\t}\n\n    }\n\n    function ProposeNode(string _enodeId, bool _canWrite, bool _canLead) public returns (uint _nodeIndex){\n        NodeStatus status = NodeStatus.NotInList;\n        (status, _nodeIndex) = checkIfNodeExists(_enodeId);\n\n\t\tif (status == NodeStatus.NotInList){\n            globalNodeIndex ++;\n            _nodeIndex = globalNodeIndex;\n            nodelist[_nodeIndex] = nodeDetails(_enodeId, _canWrite, _canLead, NodeStatus.PendingApproval);\n            emit NewNodeProposed (_nodeIndex, _enodeId, _canWrite, _canLead);\n            return _nodeIndex;\n\t\t}\n\t\telse {\n            emit NodeExists(_enodeId);\n\t\t}\n\t\treturn _nodeIndex;\n    }\n\n    function ProposeDeactivation(string _enodeId) public {\n\n\t\tuint nodeIndex = 0;\n\n        NodeStatus status = NodeStatus.NotInList;\n        (status, nodeIndex) = checkIfNodeExists(_enodeId);\n\t\t\n\n\t\tif (status != NodeStatus.NotInList ){\n\t\t\temit InvalidNodeId(_enodeId);\n\t\t}\n\n\t\tif (status == NodeStatus.Approved){\n\t\t\tnodelist[nodeIndex].status = NodeStatus.PendingDeactivation;\n\t\t\temit NodePendingDeactivation(_enodeId);\n\t\t}\n\t\telse {\n\t\t\temit OperationNotAllowed(_enodeId);\n\t\t}\n    }\n\n}    \n",
  "sourcePath": "/home/vagrant/work/perm/contracts/contracts/Permissions.sol",
  "compiler": {
    "name": "solc",
    "version": "0.4.23+commit.124ca40d.Emscripten.clang"
  },
  "schemaVersion": "2.0.0",
  "updatedAt": "2018-05-30T07:28:39.027Z"
}