{
  "contractName": "TestContract",
  "abi": [
    {
      "anonymous": false,
      "inputs": [
        {
          "indexed": false,
          "name": "count",
          "type": "uint256"
        }
      ],
      "name": "TestEvent",
      "type": "event"
    },
    {
      "constant": false,
      "inputs": [],
      "name": "emitEvent",
      "outputs": [],
      "payable": false,
      "stateMutability": "nonpayable",
      "type": "function"
    }
  ],
  "bytecode": "0x608060405260008055348015601357600080fd5b5060cc806100226000396000f300608060405260043610603f576000357c0100000000000000000000000000000000000000000000000000000000900463ffffffff1680637b0cb839146044575b600080fd5b348015604f57600080fd5b5060566058565b005b7f1440c4dd67b4344ea1905ec0318995133b550f168b4ee959a0da6b503d7d2414600080815480929190600101919050556040518082815260200191505060405180910390a15600a165627a7a723058209d79770eab5302adbbe6f14a7e5a15cc981a893676cca4d428ede1e15ffea1c00029",
  "source": "pragma solidity ^0.4.18;\n\ncontract TestContract {\n\n    uint counter = 0;\n\n    event TestEvent(uint count);\n\n    function emitEvent() public {\n        emit TestEvent(counter++);\n    }\n\n}\n",
  "sourcePath": "/home/vagrant/work/trufflescripts/temp/contracts/TestContract.sol",
  "compiler": {
    "name": "solc",
    "version": "0.4.24+commit.e67f0147.Emscripten.clang"
  },
  "schemaVersion": "2.0.1",
  "updatedAt": "2018-07-25T08:43:57.330Z"
}